{
  "_format": "hh-sol-artifact-1",
  "contractName": "BuyMeCoffee",
  "sourceName": "contracts/BuyMeCoffee.sol",
  "abi": [
    {
      "inputs": [],
      "stateMutability": "nonpayable",
      "type": "constructor"
    },
    {
      "anonymous": false,
      "inputs": [
        {
          "indexed": true,
          "internalType": "address",
          "name": "from",
          "type": "address"
        },
        {
          "indexed": false,
          "internalType": "uint256",
          "name": "timestamp",
          "type": "uint256"
        },
        {
          "indexed": false,
          "internalType": "string",
          "name": "message",
          "type": "string"
        },
        {
          "indexed": false,
          "internalType": "string",
          "name": "name",
          "type": "string"
        }
      ],
      "name": "NewMemo",
      "type": "event"
    },
    {
      "stateMutability": "payable",
      "type": "fallback"
    },
    {
      "inputs": [
        {
          "internalType": "string",
          "name": "_name",
          "type": "string"
        },
        {
          "internalType": "string",
          "name": "_message",
          "type": "string"
        }
      ],
      "name": "buyCoffee",
      "outputs": [],
      "stateMutability": "payable",
      "type": "function"
    },
    {
      "inputs": [
        {
          "internalType": "uint256",
          "name": "_index",
          "type": "uint256"
        }
      ],
      "name": "getMemo",
      "outputs": [
        {
          "internalType": "address",
          "name": "",
          "type": "address"
        },
        {
          "internalType": "uint256",
          "name": "",
          "type": "uint256"
        },
        {
          "internalType": "string",
          "name": "",
          "type": "string"
        },
        {
          "internalType": "string",
          "name": "",
          "type": "string"
        }
      ],
      "stateMutability": "view",
      "type": "function"
    },
    {
      "inputs": [],
      "name": "getMemos",
      "outputs": [
        {
          "components": [
            {
              "internalType": "address",
              "name": "from",
              "type": "address"
            },
            {
              "internalType": "uint256",
              "name": "timestamp",
              "type": "uint256"
            },
            {
              "internalType": "string",
              "name": "name",
              "type": "string"
            },
            {
              "internalType": "string",
              "name": "message",
              "type": "string"
            }
          ],
          "internalType": "struct BuyMeCoffee.Memo[]",
          "name": "",
          "type": "tuple[]"
        }
      ],
      "stateMutability": "view",
      "type": "function"
    },
    {
      "inputs": [],
      "name": "getMemosCount",
      "outputs": [
        {
          "internalType": "uint256",
          "name": "",
          "type": "uint256"
        }
      ],
      "stateMutability": "view",
      "type": "function"
    },
    {
      "inputs": [],
      "name": "getOwner",
      "outputs": [
        {
          "internalType": "address",
          "name": "",
          "type": "address"
        }
      ],
      "stateMutability": "view",
      "type": "function"
    },
    {
      "inputs": [
        {
          "internalType": "uint256",
          "name": "",
          "type": "uint256"
        }
      ],
      "name": "memos",
      "outputs": [
        {
          "internalType": "address",
          "name": "from",
          "type": "address"
        },
        {
          "internalType": "uint256",
          "name": "timestamp",
          "type": "uint256"
        },
        {
          "internalType": "string",
          "name": "name",
          "type": "string"
        },
        {
          "internalType": "string",
          "name": "message",
          "type": "string"
        }
      ],
      "stateMutability": "view",
      "type": "function"
    },
    {
      "inputs": [],
      "name": "owner",
      "outputs": [
        {
          "internalType": "address payable",
          "name": "",
          "type": "address"
        }
      ],
      "stateMutability": "view",
      "type": "function"
    },
    {
      "inputs": [],
      "name": "withdraw",
      "outputs": [],
      "stateMutability": "nonpayable",
      "type": "function"
    },
    {
      "stateMutability": "payable",
      "type": "receive"
    }
  ],
  "bytecode": "0x608060405234801561001057600080fd5b5033600160006101000a81548173ffffffffffffffffffffffffffffffffffffffff021916908373ffffffffffffffffffffffffffffffffffffffff1602179055506113fa806100616000396000f3fe60806040526004361061007f5760003560e01c8063893d20e81161004e578063893d20e8146101265780638da5cb5b146101515780639935db881461017c578063e8dfdf04146101a757610086565b8063204206e1146100885780633ccfd60b146100a457806375f31470146100bb578063865c5172146100fb57610086565b3661008657005b005b6100a2600480360381019061009d9190610b4f565b6101e7565b005b3480156100b057600080fd5b506100b9610368565b005b3480156100c757600080fd5b506100e260048036038101906100dd9190610bfd565b610463565b6040516100f29493929190610cf9565b60405180910390f35b34801561010757600080fd5b50610110610646565b60405161011d9190610ee0565b60405180910390f35b34801561013257600080fd5b5061013b610829565b6040516101489190610f02565b60405180910390f35b34801561015d57600080fd5b50610166610853565b6040516101739190610f3e565b60405180910390f35b34801561018857600080fd5b50610191610879565b60405161019e9190610f59565b60405180910390f35b3480156101b357600080fd5b506101ce60048036038101906101c99190610bfd565b610885565b6040516101de9493929190610cf9565b60405180910390f35b662386f26fc10000341015610231576040517f08c379a000000000000000000000000000000000000000000000000000000000815260040161022890610fc0565b60405180910390fd5b600060405180608001604052803373ffffffffffffffffffffffffffffffffffffffff16815260200142815260200184815260200183815250908060018154018082558091505060019003906000526020600020906004020160009091909190915060008201518160000160006101000a81548173ffffffffffffffffffffffffffffffffffffffff021916908373ffffffffffffffffffffffffffffffffffffffff1602179055506020820151816001015560408201518160020190816102f991906111ec565b50606082015181600301908161030f91906111ec565b5050503373ffffffffffffffffffffffffffffffffffffffff167fc56140e05f516509ae28110e0f72e17558a7561630dad2647c3ae87d986e365c42838560405161035c939291906112be565b60405180910390a25050565b600160009054906101000a900473ffffffffffffffffffffffffffffffffffffffff1673ffffffffffffffffffffffffffffffffffffffff163373ffffffffffffffffffffffffffffffffffffffff16146103f8576040517f08c379a00000000000000000000000000000000000000000000000000000000081526004016103ef90611375565b60405180910390fd5b600160009054906101000a900473ffffffffffffffffffffffffffffffffffffffff1673ffffffffffffffffffffffffffffffffffffffff166108fc479081150290604051600060405180830381858888f19350505050158015610460573d6000803e3d6000fd5b50565b6000806060806000858154811061047d5761047c611395565b5b906000526020600020906004020160000160009054906101000a900473ffffffffffffffffffffffffffffffffffffffff16600086815481106104c3576104c2611395565b5b906000526020600020906004020160010154600087815481106104e9576104e8611395565b5b90600052602060002090600402016002016000888154811061050e5761050d611395565b5b906000526020600020906004020160030181805461052b9061100f565b80601f01602080910402602001604051908101604052809291908181526020018280546105579061100f565b80156105a45780601f10610579576101008083540402835291602001916105a4565b820191906000526020600020905b81548152906001019060200180831161058757829003601f168201915b505050505091508080546105b79061100f565b80601f01602080910402602001604051908101604052809291908181526020018280546105e39061100f565b80156106305780601f1061060557610100808354040283529160200191610630565b820191906000526020600020905b81548152906001019060200180831161061357829003601f168201915b5050505050905093509350935093509193509193565b60606000805480602002602001604051908101604052809291908181526020016000905b8282101561082057838290600052602060002090600402016040518060800160405290816000820160009054906101000a900473ffffffffffffffffffffffffffffffffffffffff1673ffffffffffffffffffffffffffffffffffffffff1673ffffffffffffffffffffffffffffffffffffffff168152602001600182015481526020016002820180546106fd9061100f565b80601f01602080910402602001604051908101604052809291908181526020018280546107299061100f565b80156107765780601f1061074b57610100808354040283529160200191610776565b820191906000526020600020905b81548152906001019060200180831161075957829003601f168201915b5050505050815260200160038201805461078f9061100f565b80601f01602080910402602001604051908101604052809291908181526020018280546107bb9061100f565b80156108085780601f106107dd57610100808354040283529160200191610808565b820191906000526020600020905b8154815290600101906020018083116107eb57829003601f168201915b5050505050815250508152602001906001019061066a565b50505050905090565b6000600160009054906101000a900473ffffffffffffffffffffffffffffffffffffffff16905090565b600160009054906101000a900473ffffffffffffffffffffffffffffffffffffffff1681565b60008080549050905090565b6000818154811061089557600080fd5b90600052602060002090600402016000915090508060000160009054906101000a900473ffffffffffffffffffffffffffffffffffffffff16908060010154908060020180546108e49061100f565b80601f01602080910402602001604051908101604052809291908181526020018280546109109061100f565b801561095d5780601f106109325761010080835404028352916020019161095d565b820191906000526020600020905b81548152906001019060200180831161094057829003601f168201915b5050505050908060030180546109729061100f565b80601f016020809104026020016040519081016040528092919081815260200182805461099e9061100f565b80156109eb5780601f106109c0576101008083540402835291602001916109eb565b820191906000526020600020905b8154815290600101906020018083116109ce57829003601f168201915b5050505050905084565b6000604051905090565b600080fd5b600080fd5b600080fd5b600080fd5b6000601f19601f8301169050919050565b7f4e487b7100000000000000000000000000000000000000000000000000000000600052604160045260246000fd5b610a5c82610a13565b810181811067ffffffffffffffff82111715610a7b57610a7a610a24565b5b80604052505050565b6000610a8e6109f5565b9050610a9a8282610a53565b919050565b600067ffffffffffffffff821115610aba57610ab9610a24565b5b610ac382610a13565b9050602081019050919050565b82818337600083830152505050565b6000610af2610aed84610a9f565b610a84565b905082815260208101848484011115610b0e57610b0d610a0e565b5b610b19848285610ad0565b509392505050565b600082601f830112610b3657610b35610a09565b5b8135610b46848260208601610adf565b91505092915050565b60008060408385031215610b6657610b656109ff565b5b600083013567ffffffffffffffff811115610b8457610b83610a04565b5b610b9085828601610b21565b925050602083013567ffffffffffffffff811115610bb157610bb0610a04565b5b610bbd85828601610b21565b9150509250929050565b6000819050919050565b610bda81610bc7565b8114610be557600080fd5b50565b600081359050610bf781610bd1565b92915050565b600060208284031215610c1357610c126109ff565b5b6000610c2184828501610be8565b91505092915050565b600073ffffffffffffffffffffffffffffffffffffffff82169050919050565b6000610c5582610c2a565b9050919050565b610c6581610c4a565b82525050565b610c7481610bc7565b82525050565b600081519050919050565b600082825260208201905092915050565b60005b83811015610cb4578082015181840152602081019050610c99565b60008484015250505050565b6000610ccb82610c7a565b610cd58185610c85565b9350610ce5818560208601610c96565b610cee81610a13565b840191505092915050565b6000608082019050610d0e6000830187610c5c565b610d1b6020830186610c6b565b8181036040830152610d2d8185610cc0565b90508181036060830152610d418184610cc0565b905095945050505050565b600081519050919050565b600082825260208201905092915050565b6000819050602082019050919050565b610d8181610c4a565b82525050565b610d9081610bc7565b82525050565b600082825260208201905092915050565b6000610db282610c7a565b610dbc8185610d96565b9350610dcc818560208601610c96565b610dd581610a13565b840191505092915050565b6000608083016000830151610df86000860182610d78565b506020830151610e0b6020860182610d87565b5060408301518482036040860152610e238282610da7565b91505060608301518482036060860152610e3d8282610da7565b9150508091505092915050565b6000610e568383610de0565b905092915050565b6000602082019050919050565b6000610e7682610d4c565b610e808185610d57565b935083602082028501610e9285610d68565b8060005b85811015610ece5784840389528151610eaf8582610e4a565b9450610eba83610e5e565b925060208a01995050600181019050610e96565b50829750879550505050505092915050565b60006020820190508181036000830152610efa8184610e6b565b905092915050565b6000602082019050610f176000830184610c5c565b92915050565b6000610f2882610c2a565b9050919050565b610f3881610f1d565b82525050565b6000602082019050610f536000830184610f2f565b92915050565b6000602082019050610f6e6000830184610c6b565b92915050565b7f4e6f7420656e6f7567682045544820746f20627579206120636f666665650000600082015250565b6000610faa601e83610c85565b9150610fb582610f74565b602082019050919050565b60006020820190508181036000830152610fd981610f9d565b9050919050565b7f4e487b7100000000000000000000000000000000000000000000000000000000600052602260045260246000fd5b6000600282049050600182168061102757607f821691505b60208210810361103a57611039610fe0565b5b50919050565b60008190508160005260206000209050919050565b60006020601f8301049050919050565b600082821b905092915050565b6000600883026110a27fffffffffffffffffffffffffffffffffffffffffffffffffffffffffffffffff82611065565b6110ac8683611065565b95508019841693508086168417925050509392505050565b6000819050919050565b60006110e96110e46110df84610bc7565b6110c4565b610bc7565b9050919050565b6000819050919050565b611103836110ce565b61111761110f826110f0565b848454611072565b825550505050565b600090565b61112c61111f565b6111378184846110fa565b505050565b5b8181101561115b57611150600082611124565b60018101905061113d565b5050565b601f8211156111a05761117181611040565b61117a84611055565b81016020851015611189578190505b61119d61119585611055565b83018261113c565b50505b505050565b600082821c905092915050565b60006111c3600019846008026111a5565b1980831691505092915050565b60006111dc83836111b2565b9150826002028217905092915050565b6111f582610c7a565b67ffffffffffffffff81111561120e5761120d610a24565b5b611218825461100f565b61122382828561115f565b600060209050601f8311600181146112565760008415611244578287015190505b61124e85826111d0565b8655506112b6565b601f19841661126486611040565b60005b8281101561128c57848901518255600182019150602085019450602081019050611267565b868310156112a957848901516112a5601f8916826111b2565b8355505b6001600288020188555050505b505050505050565b60006060820190506112d36000830186610c6b565b81810360208301526112e58185610cc0565b905081810360408301526112f98184610cc0565b9050949350505050565b7f4f6e6c79206f776e65722063616e2063616c6c20746869732066756e6374696f60008201527f6e2e000000000000000000000000000000000000000000000000000000000000602082015250565b600061135f602283610c85565b915061136a82611303565b604082019050919050565b6000602082019050818103600083015261138e81611352565b9050919050565b7f4e487b7100000000000000000000000000000000000000000000000000000000600052603260045260246000fdfea26469706673582212200e2b474fe305be46da05f4ab77350246d3385ad93c15b04aa91e8904c5772f2d64736f6c63430008110033",
  "linkReferences": {},
  "deployedLinkReferences": {}
}